{
  "contractName": "StakeDrop3",
  "abi": [
    {
      "anonymous": false,
      "inputs": [
        {
          "indexed": false,
          "internalType": "address",
          "name": "sender",
          "type": "address"
        },
        {
          "indexed": false,
          "internalType": "uint256",
          "name": "height",
          "type": "uint256"
        },
        {
          "indexed": false,
          "internalType": "string",
          "name": "xprtAddress",
          "type": "string"
        }
      ],
      "name": "MagicTxEvent",
      "type": "event"
    },
    {
      "inputs": [
        {
          "internalType": "string",
          "name": "xprtAddress",
          "type": "string"
        }
      ],
      "name": "MagicTx",
      "outputs": [],
      "stateMutability": "nonpayable",
      "type": "function"
    }
  ],
  "bytecode": "0x608060405234801561001057600080fd5b506101c3806100206000396000f3fe608060405234801561001057600080fd5b506004361061002b5760003560e01c8063a7dd098914610030575b600080fd5b6100d66004803603602081101561004657600080fd5b81019060208101813564010000000081111561006157600080fd5b82018360208201111561007357600080fd5b8035906020019184600183028401116401000000008311171561009557600080fd5b91908080601f0160208091040260200160405190810160405280939291908181526020018383808284376000920191909152509295506100d8945050505050565b005b7f7f0a42749a094de2035da417e2feb496454a8dd0ef5f017fec89dc5c7cbd5be433438360405180846001600160a01b0316815260200183815260200180602001828103825283818151815260200191508051906020019080838360005b8381101561014e578181015183820152602001610136565b50505050905090810190601f16801561017b5780820380516001836020036101000a031916815260200191505b5094505050505060405180910390a15056fea2646970667358221220443404de4ad11b13d2622cc14e30421c7a79bcd289f6439cab3d101057f41b7664736f6c63430007060033",
  "immutableReferences": {},
  "source": "pragma solidity >=0.7.0 <0.9.0;\n\ncontract StakeDrop3 {\n\n    event MagicTxEvent(address sender, uint256 height, string xprtAddress);\n\n    /**\n     * @dev emits the event for xprt address\n     */\n    function MagicTx(string memory xprtAddress) public {\n        emit MagicTxEvent(msg.sender, block.number, xprtAddress);\n    }\n}",
  "sourcePath": "/home/aditimahesh/Documents/Work/Persistence/go/src/github.com/persistenceOne/stakeDrop/magic/contracts/magicTx3.sol",
  "compiler": {
    "name": "solc",
    "version": "0.7.6+commit.7338295f.Emscripten.clang"
  },
  "schemaVersion": "3.3.4",
  "updatedAt": "2021-07-26T09:43:30.282Z",
  "networkType": "ethereum",
  "devdoc": {
    "kind": "dev",
    "methods": {
      "MagicTx(string)": {
        "details": "emits the event for xprt address"
      }
    },
    "version": 1
  },
  "userdoc": {
    "kind": "user",
    "methods": {},
    "version": 1
  }
}